:020000000329D2
:10000800FF00030E8301AE000A08AD008A017008E4
:10001800A0008B1C17288B10A40AA1012408023AFF
:10002800031D1728A4010B1C24280608AA000B107E
:10003800A101A30A2308023C031824280130A300C5
:100048002008F0002D088A002E0E8300FF0E7F0E78
:0200580009009D
:0E005A00831203132C088A002B088200080072
:100068002D208A110A128000840AAB0A0319AC0AEF
:08007800F003031D3428080009
:100080008316031387018312870183168801831265
:0E00900088010B16831601138B158B170800C1
:10009E00A228831203130716871607178717F03047
:1000AE0087053008870407120D30FC00FB30FD0079
:1000BE00FD0B5F28FC0B5F2800000000B42807161C
:1000CE00871607178717F0308705300887048712C1
:1000DE000D30FC00FB30FD00FD0B7328FC0B73286C
:1000EE0000000000B4280716871607178717F03090
:1000FE0087053008870407130D30FC00FB30FD0028
:10010E00FD0B8728FC0B872800000000B42807167B
:10011E00871607178717F03087053008870487136F
:10012E000D30FC00FB30FD00FD0B9B28FC0B9B28CB
:10013E0000000000B428831203132F08013A03199C
:10014E0050282F08023A031966282F08033A03197C
:0C015E007A282F08043A03198E280800A4
:10016A0083120313F8010830FC00700DF80D7408AF
:10017A00F8020318C228F8070310F00DFC0BBA287E
:02018A0008006B
:10018C00EC28831203130810881008118811081228
:10019C008812022908148810081188110816881270
:1001AC0002290814881008118811081288160229CF
:1001BC0008108814081188150812881202290810D2
:1001CC008810081588150812881202298312031347
:1001DC002F08003A0319C7282F08013A0319D02811
:1001EC002F08023A0319D7282F08033A0319DE28DF
:0A01FC002F08043A0319E528080053
:1002060083120313A101A2010130A300A401A501D9
:10021600A601A701A801A901402083122408003ADB
:10022600031D082A1730A6002608003C03188E294D
:100236002408003A031D8E290A30F4002608F0002F
:10024600B5207008A5000A30F4002608F000B52095
:100256007808F0007008A9002608143C03186229E3
:100266000130AF00C62014302602A700A801A20163
:1002760032302202013003180030F1002408003A1F
:100286000130031D0030F0007108F00503196129E3
:100296000130AF002508B0004F200230AF0029081A
:1002A600B0004F200330AF002808B0004F200430C4
:1002B600AF002708B0004F20A20A3B298C29023044
:1002C600AF00C620A20132302202013003180030EE
:1002D600F1002408003A0130031D0030F0007108D7
:1002E600F00503198C290130AF002508B0004F2016
:1002F6000230AF002908B0004F200330AF002508B8
:10030600B0004F200430AF002908B0004F20A20AE9
:100316006629A60317290F30A6002608003C0318F5
:10032600072A2408003A031D072A0A30F400260883
:10033600F000B5207008A8000A30F4002608F00086
:10034600B5207808F0007008A70026080C3C0318B2
:10035600DB290330AF00C6200C302602A900A50118
:10036600A20132302202013003180030F1002408C5
:10037600003A0130031D0030F0007108F005031942
:10038600DA290130AF002508B0004F200230AF0057
:100396002908B0004F200330AF002808B0004F20D6
:1003A6000430AF002708B0004F20A20AB429052A5E
:1003B6000430AF00C620A2013230220201300318F9
:1003C6000030F1002408003A0130031D0030F0002F
:1003D6007108F0050319052A0130AF002808B0009E
:1003E6004F200230AF002708B0004F200330AF0087
:1003F6002808B0004F200430AF002708B0004F2077
:10040600A20ADF29A6039029A22A2408013A031D7D
:10041600A22A992A2108003A031D522A0130AF0068
:10042600C6200330A6002608003C03184D2A2308E0
:10043600013A031D4D2A2108003A031D4D2AA50144
:10044600A8012608A9002608A700A2013230220228
:1004560003184B2A2308013A031D4B2A2108003AA8
:10046600031D4B2A0130AF002508B0004F20023093
:10047600AF002908B0004F200330AF002808B000B5
:100486004F200430AF002708B0004F20A20A292AC7
:10049600A603162A0130A1000230AF00C620A12A09
:1004A6002108003A031D982A0330AF00C620033006
:1004B600A6002608003C0318932A2308023A031DC7
:1004C600932A2108003A031D932AA501A8012608AC
:1004D600A9002608A700A201323022020318912A99
:1004E6002308023A031D912A2108003A031D912A86
:1004F6000130AF002508B0004F200230AF002908B8
:10050600B0004F200330AF002808B0004F20043061
:10051600AF002708B0004F20A20A6F2AA6035C2A64
:100526000130A1000430AF00C620A12A2308013AF9
:1005360003190D2A2308023A0319532A87011029A1
:02054600A32AE6
:02400E004A2F37
:00000001FF
